{
  "contractName": "CreateCampaign",
  "abi": [
    {
      "anonymous": false,
      "inputs": [
        {
          "indexed": false,
          "internalType": "uint256",
          "name": "campaignId",
          "type": "uint256"
        },
        {
          "indexed": false,
          "internalType": "string",
          "name": "title",
          "type": "string"
        },
        {
          "indexed": false,
          "internalType": "uint256",
          "name": "goal",
          "type": "uint256"
        },
        {
          "indexed": false,
          "internalType": "uint256",
          "name": "deadline",
          "type": "uint256"
        },
        {
          "indexed": true,
          "internalType": "address",
          "name": "owner",
          "type": "address"
        }
      ],
      "name": "CampaignCreated",
      "type": "event"
    },
    {
      "inputs": [
        {
          "internalType": "uint256",
          "name": "",
          "type": "uint256"
        }
      ],
      "name": "campaigns",
      "outputs": [
        {
          "internalType": "string",
          "name": "title",
          "type": "string"
        },
        {
          "internalType": "string",
          "name": "description",
          "type": "string"
        },
        {
          "internalType": "uint256",
          "name": "goal",
          "type": "uint256"
        },
        {
          "internalType": "uint256",
          "name": "deadline",
          "type": "uint256"
        },
        {
          "internalType": "address",
          "name": "owner",
          "type": "address"
        },
        {
          "internalType": "uint256",
          "name": "amountCollected",
          "type": "uint256"
        }
      ],
      "stateMutability": "view",
      "type": "function",
      "constant": true
    },
    {
      "inputs": [
        {
          "internalType": "string",
          "name": "_title",
          "type": "string"
        },
        {
          "internalType": "string",
          "name": "_description",
          "type": "string"
        },
        {
          "internalType": "uint256",
          "name": "_goal",
          "type": "uint256"
        },
        {
          "internalType": "uint256",
          "name": "_deadline",
          "type": "uint256"
        }
      ],
      "name": "createCampaign",
      "outputs": [],
      "stateMutability": "nonpayable",
      "type": "function"
    },
    {
      "inputs": [
        {
          "internalType": "uint256",
          "name": "_campaignId",
          "type": "uint256"
        }
      ],
      "name": "getCampaign",
      "outputs": [
        {
          "internalType": "string",
          "name": "",
          "type": "string"
        },
        {
          "internalType": "string",
          "name": "",
          "type": "string"
        },
        {
          "internalType": "uint256",
          "name": "",
          "type": "uint256"
        },
        {
          "internalType": "uint256",
          "name": "",
          "type": "uint256"
        },
        {
          "internalType": "uint256",
          "name": "",
          "type": "uint256"
        },
        {
          "internalType": "address",
          "name": "",
          "type": "address"
        }
      ],
      "stateMutability": "view",
      "type": "function",
      "constant": true
    },
    {
      "inputs": [],
      "name": "getCampaignCount",
      "outputs": [
        {
          "internalType": "uint256",
          "name": "",
          "type": "uint256"
        }
      ],
      "stateMutability": "view",
      "type": "function",
      "constant": true
    }
  ],
  "bytecode": "0x608060405234801561001057600080fd5b50610d2c806100206000396000f3fe608060405234801561001057600080fd5b506004361061004c5760003560e01c8063141961bc146100515780635598f8cc146100865780636caa9218146100bb578063a318f269146100d9575b600080fd5b61006b6004803603810190610066919061085b565b6100f5565b60405161007d9695949392919061095b565b60405180910390f35b6100a0600480360381019061009b919061085b565b610271565b6040516100b2969594939291906109ca565b60405180910390f35b6100c361049c565b6040516100d09190610a79565b60405180910390f35b6100f360048036038101906100ee91906107c8565b6104a8565b005b6000818154811061010557600080fd5b906000526020600020906006020160009150905080600001805461012890610c0f565b80601f016020809104026020016040519081016040528092919081815260200182805461015490610c0f565b80156101a15780601f10610176576101008083540402835291602001916101a1565b820191906000526020600020905b81548152906001019060200180831161018457829003601f168201915b5050505050908060010180546101b690610c0f565b80601f01602080910402602001604051908101604052809291908181526020018280546101e290610c0f565b801561022f5780601f106102045761010080835404028352916020019161022f565b820191906000526020600020905b81548152906001019060200180831161021257829003601f168201915b5050505050908060020154908060030154908060040160009054906101000a900473ffffffffffffffffffffffffffffffffffffffff16908060050154905086565b60608060008060008060008088815481106102b5577f4e487b7100000000000000000000000000000000000000000000000000000000600052603260045260246000fd5b90600052602060002090600602016040518060c00160405290816000820180546102de90610c0f565b80601f016020809104026020016040519081016040528092919081815260200182805461030a90610c0f565b80156103575780601f1061032c57610100808354040283529160200191610357565b820191906000526020600020905b81548152906001019060200180831161033a57829003601f168201915b5050505050815260200160018201805461037090610c0f565b80601f016020809104026020016040519081016040528092919081815260200182805461039c90610c0f565b80156103e95780601f106103be576101008083540402835291602001916103e9565b820191906000526020600020905b8154815290600101906020018083116103cc57829003601f168201915b5050505050815260200160028201548152602001600382015481526020016004820160009054906101000a900473ffffffffffffffffffffffffffffffffffffffff1673ffffffffffffffffffffffffffffffffffffffff1673ffffffffffffffffffffffffffffffffffffffff16815260200160058201548152505090508060000151816020015182604001518360a00151846060015185608001519650965096509650965096505091939550919395565b60008080549050905090565b4281116104ea576040517f08c379a00000000000000000000000000000000000000000000000000000000081526004016104e190610a39565b60405180910390fd5b6000821161052d576040517f08c379a000000000000000000000000000000000000000000000000000000000815260040161052490610a59565b60405180910390fd5b60006040518060c001604052808681526020018581526020018481526020018381526020013373ffffffffffffffffffffffffffffffffffffffff1681526020016000815250908060018154018082558091505060019003906000526020600020906006020160009091909190915060008201518160000190805190602001906105b89291906106a8565b5060208201518160010190805190602001906105d59291906106a8565b50604082015181600201556060820151816003015560808201518160040160006101000a81548173ffffffffffffffffffffffffffffffffffffffff021916908373ffffffffffffffffffffffffffffffffffffffff16021790555060a0820151816005015550503373ffffffffffffffffffffffffffffffffffffffff167f55c246c9acac35defa7b5b11325208f9615273b139a7d1642a880afb4568637e60016000805490506106879190610b5d565b86858560405161069a9493929190610a94565b60405180910390a250505050565b8280546106b490610c0f565b90600052602060002090601f0160209004810192826106d6576000855561071d565b82601f106106ef57805160ff191683800117855561071d565b8280016001018555821561071d579182015b8281111561071c578251825591602001919060010190610701565b5b50905061072a919061072e565b5090565b5b8082111561074757600081600090555060010161072f565b5090565b600061075e61075984610b11565b610ae0565b90508281526020810184848401111561077657600080fd5b610781848285610bcd565b509392505050565b600082601f83011261079a57600080fd5b81356107aa84826020860161074b565b91505092915050565b6000813590506107c281610cdf565b92915050565b600080600080608085870312156107de57600080fd5b600085013567ffffffffffffffff8111156107f857600080fd5b61080487828801610789565b945050602085013567ffffffffffffffff81111561082157600080fd5b61082d87828801610789565b935050604061083e878288016107b3565b925050606061084f878288016107b3565b91505092959194509250565b60006020828403121561086d57600080fd5b600061087b848285016107b3565b91505092915050565b61088d81610b91565b82525050565b600061089e82610b41565b6108a88185610b4c565b93506108b8818560208601610bdc565b6108c181610cce565b840191505092915050565b60006108d9601e83610b4c565b91507f446561646c696e65206d75737420626520696e207468652066757475726500006000830152602082019050919050565b6000610919601b83610b4c565b91507f476f616c206d7573742062652067726561746572207468616e203000000000006000830152602082019050919050565b61095581610bc3565b82525050565b600060c08201905081810360008301526109758189610893565b905081810360208301526109898188610893565b9050610998604083018761094c565b6109a5606083018661094c565b6109b26080830185610884565b6109bf60a083018461094c565b979650505050505050565b600060c08201905081810360008301526109e48189610893565b905081810360208301526109f88188610893565b9050610a07604083018761094c565b610a14606083018661094c565b610a21608083018561094c565b610a2e60a0830184610884565b979650505050505050565b60006020820190508181036000830152610a52816108cc565b9050919050565b60006020820190508181036000830152610a728161090c565b9050919050565b6000602082019050610a8e600083018461094c565b92915050565b6000608082019050610aa9600083018761094c565b8181036020830152610abb8186610893565b9050610aca604083018561094c565b610ad7606083018461094c565b95945050505050565b6000604051905081810181811067ffffffffffffffff82111715610b0757610b06610c9f565b5b8060405250919050565b600067ffffffffffffffff821115610b2c57610b2b610c9f565b5b601f19601f8301169050602081019050919050565b600081519050919050565b600082825260208201905092915050565b6000610b6882610bc3565b9150610b7383610bc3565b925082821015610b8657610b85610c41565b5b828203905092915050565b6000610b9c82610ba3565b9050919050565b600073ffffffffffffffffffffffffffffffffffffffff82169050919050565b6000819050919050565b82818337600083830152505050565b60005b83811015610bfa578082015181840152602081019050610bdf565b83811115610c09576000848401525b50505050565b60006002820490506001821680610c2757607f821691505b60208210811415610c3b57610c3a610c70565b5b50919050565b7f4e487b7100000000000000000000000000000000000000000000000000000000600052601160045260246000fd5b7f4e487b7100000000000000000000000000000000000000000000000000000000600052602260045260246000fd5b7f4e487b7100000000000000000000000000000000000000000000000000000000600052604160045260246000fd5b6000601f19601f8301169050919050565b610ce881610bc3565b8114610cf357600080fd5b5056fea2646970667358221220e842606066d54c3e0b08302b5a7ec08fc497ac878093576b49a51bd731a0e1fd64736f6c63430008000033",
  "immutableReferences": {},
  "source": "// SPDX-License-Identifier: MIT\r\npragma solidity ^0.8.0;\r\n\r\ncontract CreateCampaign {\r\n    struct Campaign {\r\n        string title;\r\n        string description;\r\n        uint256 goal; // Target dana (eth)\r\n        uint256 deadline; // Tanggal akhir (timestamp)\r\n        address owner; // Pemilik campaign\r\n        uint256 amountCollected; // Total dana terkumpul\r\n    }\r\n\r\n    Campaign[] public campaigns;\r\n\r\n    event CampaignCreated(\r\n        uint256 campaignId,\r\n        string title,\r\n        uint256 goal,\r\n        uint256 deadline,\r\n        address indexed owner\r\n    );\r\n\r\n    function createCampaign(\r\n        string memory _title,\r\n        string memory _description,\r\n        uint256 _goal,\r\n        uint256 _deadline\r\n    ) public {\r\n        require(_deadline > block.timestamp, \"Deadline must be in the future\");\r\n        require(_goal > 0, \"Goal must be greater than 0\");\r\n\r\n        campaigns.push(\r\n            Campaign({\r\n                title: _title,\r\n                description: _description,\r\n                goal: _goal,\r\n                deadline: _deadline,\r\n                owner: msg.sender,\r\n                amountCollected: 0\r\n            })\r\n        );\r\n\r\n        emit CampaignCreated(campaigns.length - 1, _title, _goal, _deadline, msg.sender);\r\n    }\r\n\r\n    function getCampaign(uint256 _campaignId)\r\n        public\r\n        view\r\n        returns (string memory, string memory, uint256, uint256, uint256, address)\r\n    {\r\n        Campaign memory c = campaigns[_campaignId];\r\n        return (c.title, c.description, c.goal, c.amountCollected, c.deadline, c.owner);\r\n    }\r\n\r\n    function getCampaignCount() public view returns (uint256) {\r\n        return campaigns.length;\r\n    }\r\n}\r\n",
  "sourcePath": "C:\\Users\\ASUS\\cf1\\contracts\\CreateCampaign.sol",
  "compiler": {
    "name": "solc",
    "version": "0.8.0+commit.c7dfd78e.Emscripten.clang"
  },
  "schemaVersion": "3.4.16",
  "updatedAt": "2024-12-17T06:13:35.650Z",
  "networkType": "ethereum",
  "devdoc": {
    "kind": "dev",
    "methods": {},
    "version": 1
  },
  "userdoc": {
    "kind": "user",
    "methods": {},
    "version": 1
  }
}