{
  "contractName": "Crowdfunding",
  "abi": [
    {
      "inputs": [],
      "stateMutability": "nonpayable",
      "type": "constructor"
    },
    {
      "anonymous": false,
      "inputs": [
        {
          "indexed": false,
          "internalType": "uint256",
          "name": "campaignId",
          "type": "uint256"
        },
        {
          "indexed": false,
          "internalType": "address",
          "name": "donor",
          "type": "address"
        },
        {
          "indexed": false,
          "internalType": "uint256",
          "name": "amount",
          "type": "uint256"
        }
      ],
      "name": "DonationReceived",
      "type": "event"
    },
    {
      "inputs": [],
      "name": "campaignCount",
      "outputs": [
        {
          "internalType": "uint256",
          "name": "",
          "type": "uint256"
        }
      ],
      "stateMutability": "view",
      "type": "function",
      "constant": true
    },
    {
      "inputs": [
        {
          "internalType": "uint256",
          "name": "",
          "type": "uint256"
        }
      ],
      "name": "campaigns",
      "outputs": [
        {
          "internalType": "string",
          "name": "name",
          "type": "string"
        },
        {
          "internalType": "string",
          "name": "description",
          "type": "string"
        },
        {
          "internalType": "uint256",
          "name": "goal",
          "type": "uint256"
        },
        {
          "internalType": "uint256",
          "name": "totalDonated",
          "type": "uint256"
        },
        {
          "internalType": "bool",
          "name": "active",
          "type": "bool"
        }
      ],
      "stateMutability": "view",
      "type": "function",
      "constant": true
    },
    {
      "inputs": [
        {
          "internalType": "string",
          "name": "_name",
          "type": "string"
        },
        {
          "internalType": "string",
          "name": "_description",
          "type": "string"
        },
        {
          "internalType": "uint256",
          "name": "_goal",
          "type": "uint256"
        }
      ],
      "name": "addCampaign",
      "outputs": [],
      "stateMutability": "nonpayable",
      "type": "function"
    },
    {
      "inputs": [
        {
          "internalType": "uint256",
          "name": "_campaignId",
          "type": "uint256"
        }
      ],
      "name": "donate",
      "outputs": [],
      "stateMutability": "payable",
      "type": "function",
      "payable": true
    },
    {
      "inputs": [
        {
          "internalType": "uint256",
          "name": "_campaignId",
          "type": "uint256"
        }
      ],
      "name": "getCampaign",
      "outputs": [
        {
          "internalType": "string",
          "name": "",
          "type": "string"
        },
        {
          "internalType": "string",
          "name": "",
          "type": "string"
        },
        {
          "internalType": "uint256",
          "name": "",
          "type": "uint256"
        },
        {
          "internalType": "uint256",
          "name": "",
          "type": "uint256"
        },
        {
          "internalType": "bool",
          "name": "",
          "type": "bool"
        }
      ],
      "stateMutability": "view",
      "type": "function",
      "constant": true
    }
  ],
  "bytecode": "0x60806040523480156200001157600080fd5b506200007c6040518060400160405280601f81526020017f50656d62616e67756e616e2053656b6f6c61682057696c617961682058585800815250604051806080016040528060428152602001620011666042913968056bc75e2d631000006200015660201b60201c565b620000e66040518060400160405280601981526020017f50656d62616e67756e616e2054656d70617420496261646168000000000000008152506040518060600160405280603e8152602001620011fa603e91396802b5e3af16b18800006200015660201b60201c565b620001506040518060400160405280601e81526020017f446f6e6173692050657261776174616e2054656b6e6f6c6f6769204142430000815250604051806080016040528060528152602001620011a8605291396801a055690d9db800006200015660201b60201c565b620003c5565b6040518060a00160405280848152602001838152602001828152602001600081526020016001151581525060008060015481526020019081526020016000206000820151816000019080519060200190620001b392919062000229565b506020820151816001019080519060200190620001d292919062000229565b50604082015181600201556060820151816003015560808201518160040160006101000a81548160ff021916908315150217905550905050600160008154809291906200021f9062000319565b9190505550505050565b8280546200023790620002e3565b90600052602060002090601f0160209004810192826200025b5760008555620002a7565b82601f106200027657805160ff1916838001178555620002a7565b82800160010185558215620002a7579182015b82811115620002a657825182559160200191906001019062000289565b5b509050620002b69190620002ba565b5090565b5b80821115620002d5576000816000905550600101620002bb565b5090565b6000819050919050565b60006002820490506001821680620002fc57607f821691505b6020821081141562000313576200031262000396565b5b50919050565b60006200032682620002d9565b91507fffffffffffffffffffffffffffffffffffffffffffffffffffffffffffffffff8214156200035c576200035b62000367565b5b600182019050919050565b7f4e487b7100000000000000000000000000000000000000000000000000000000600052601160045260246000fd5b7f4e487b7100000000000000000000000000000000000000000000000000000000600052602260045260246000fd5b610d9180620003d56000396000f3fe60806040526004361061004a5760003560e01c8063141961bc1461004f578063294374e7146100905780635598f8cc146100b95780637274e30d146100fa578063f14faf6f14610125575b600080fd5b34801561005b57600080fd5b5061007660048036038101906100719190610846565b610141565b6040516100879594939291906109bb565b60405180910390f35b34801561009c57600080fd5b506100b760048036038101906100b291906107c7565b610294565b005b3480156100c557600080fd5b506100e060048036038101906100db9190610846565b610361565b6040516100f19594939291906109bb565b60405180910390f35b34801561010657600080fd5b5061010f61054e565b60405161011c9190610a7c565b60405180910390f35b61013f600480360381019061013a9190610846565b610554565b005b600060205280600052604060002060009150905080600001805461016490610c2b565b80601f016020809104026020016040519081016040528092919081815260200182805461019090610c2b565b80156101dd5780601f106101b2576101008083540402835291602001916101dd565b820191906000526020600020905b8154815290600101906020018083116101c057829003601f168201915b5050505050908060010180546101f290610c2b565b80601f016020809104026020016040519081016040528092919081815260200182805461021e90610c2b565b801561026b5780601f106102405761010080835404028352916020019161026b565b820191906000526020600020905b81548152906001019060200180831161024e57829003601f168201915b5050505050908060020154908060030154908060040160009054906101000a900460ff16905085565b6040518060a001604052808481526020018381526020018281526020016000815260200160011515815250600080600154815260200190815260200160002060008201518160000190805190602001906102ef9291906106a7565b50602082015181600101908051906020019061030c9291906106a7565b50604082015181600201556060820151816003015560808201518160040160006101000a81548160ff0219169083151502179055509050506001600081548092919061035790610c5d565b9190505550505050565b606080600080600060015486106103ad576040517f08c379a00000000000000000000000000000000000000000000000000000000081526004016103a490610a3c565b60405180910390fd5b60008060008881526020019081526020016000206040518060a00160405290816000820180546103dc90610c2b565b80601f016020809104026020016040519081016040528092919081815260200182805461040890610c2b565b80156104555780601f1061042a57610100808354040283529160200191610455565b820191906000526020600020905b81548152906001019060200180831161043857829003601f168201915b5050505050815260200160018201805461046e90610c2b565b80601f016020809104026020016040519081016040528092919081815260200182805461049a90610c2b565b80156104e75780601f106104bc576101008083540402835291602001916104e7565b820191906000526020600020905b8154815290600101906020018083116104ca57829003601f168201915b5050505050815260200160028201548152602001600382015481526020016004820160009054906101000a900460ff161515151581525050905080600001518160200151826040015183606001518460800151955095509550955095505091939590929450565b60015481565b6001548110610598576040517f08c379a000000000000000000000000000000000000000000000000000000000815260040161058f90610a3c565b60405180910390fd5b600034116105db576040517f08c379a00000000000000000000000000000000000000000000000000000000081526004016105d290610a1c565b60405180910390fd5b60008082815260200190815260200160002060040160009054906101000a900460ff1661063d576040517f08c379a000000000000000000000000000000000000000000000000000000000815260040161063490610a5c565b60405180910390fd5b3460008083815260200190815260200160002060030160008282546106629190610b4b565b925050819055507f0b5b4c52969ff7329ecf7ee536409fda87812b15a8622bc6e8cdeab3aee14a2681333460405161069c93929190610a97565b60405180910390a150565b8280546106b390610c2b565b90600052602060002090601f0160209004810192826106d5576000855561071c565b82601f106106ee57805160ff191683800117855561071c565b8280016001018555821561071c579182015b8281111561071b578251825591602001919060010190610700565b5b509050610729919061072d565b5090565b5b8082111561074657600081600090555060010161072e565b5090565b600061075d61075884610aff565b610ace565b90508281526020810184848401111561077557600080fd5b610780848285610be9565b509392505050565b600082601f83011261079957600080fd5b81356107a984826020860161074a565b91505092915050565b6000813590506107c181610d44565b92915050565b6000806000606084860312156107dc57600080fd5b600084013567ffffffffffffffff8111156107f657600080fd5b61080286828701610788565b935050602084013567ffffffffffffffff81111561081f57600080fd5b61082b86828701610788565b925050604061083c868287016107b2565b9150509250925092565b60006020828403121561085857600080fd5b6000610866848285016107b2565b91505092915050565b61087881610ba1565b82525050565b61088781610bb3565b82525050565b600061089882610b2f565b6108a28185610b3a565b93506108b2818560208601610bf8565b6108bb81610d33565b840191505092915050565b60006108d3602a83610b3a565b91507f446f6e6174696f6e20616d6f756e74206d75737420626520677265617465722060008301527f7468616e207a65726f2e000000000000000000000000000000000000000000006020830152604082019050919050565b6000610939601883610b3a565b91507f43616d706169676e20646f6573206e6f742065786973742e00000000000000006000830152602082019050919050565b6000610979601783610b3a565b91507f43616d706169676e206973206e6f74206163746976652e0000000000000000006000830152602082019050919050565b6109b581610bdf565b82525050565b600060a08201905081810360008301526109d5818861088d565b905081810360208301526109e9818761088d565b90506109f860408301866109ac565b610a0560608301856109ac565b610a12608083018461087e565b9695505050505050565b60006020820190508181036000830152610a35816108c6565b9050919050565b60006020820190508181036000830152610a558161092c565b9050919050565b60006020820190508181036000830152610a758161096c565b9050919050565b6000602082019050610a9160008301846109ac565b92915050565b6000606082019050610aac60008301866109ac565b610ab9602083018561086f565b610ac660408301846109ac565b949350505050565b6000604051905081810181811067ffffffffffffffff82111715610af557610af4610d04565b5b8060405250919050565b600067ffffffffffffffff821115610b1a57610b19610d04565b5b601f19601f8301169050602081019050919050565b600081519050919050565b600082825260208201905092915050565b6000610b5682610bdf565b9150610b6183610bdf565b9250827fffffffffffffffffffffffffffffffffffffffffffffffffffffffffffffffff03821115610b9657610b95610ca6565b5b828201905092915050565b6000610bac82610bbf565b9050919050565b60008115159050919050565b600073ffffffffffffffffffffffffffffffffffffffff82169050919050565b6000819050919050565b82818337600083830152505050565b60005b83811015610c16578082015181840152602081019050610bfb565b83811115610c25576000848401525b50505050565b60006002820490506001821680610c4357607f821691505b60208210811415610c5757610c56610cd5565b5b50919050565b6000610c6882610bdf565b91507fffffffffffffffffffffffffffffffffffffffffffffffffffffffffffffffff821415610c9b57610c9a610ca6565b5b600182019050919050565b7f4e487b7100000000000000000000000000000000000000000000000000000000600052601160045260246000fd5b7f4e487b7100000000000000000000000000000000000000000000000000000000600052602260045260246000fd5b7f4e487b7100000000000000000000000000000000000000000000000000000000600052604160045260246000fd5b6000601f19601f8301169050919050565b610d4d81610bdf565b8114610d5857600080fd5b5056fea26469706673582212202cc6806072e6d059ac2af747be9c60918c3c77e4ea307f5a2e21c3e8db05853164736f6c634300080000334d656d62616e7475206d656d62616e67756e2073656b6f6c61682064692077696c617961682079616e67206d656d62757475686b616e2070656e646964696b616e2e4d656e64756b756e672070657261776174616e2064616e2070656d62617275616e2074656b6e6f6c6f67692041424320756e74756b206d656e696e676b61746b616e206b75616c697461732068696475702e4d656d62616e67756e2074656d7061742069626164616820756e74756b206b6f6d756e69746173206469206461657261682079616e67206b7572616e672e",
  "immutableReferences": {},
  "source": "// SPDX-License-Identifier: MIT\r\npragma solidity ^0.8.0;\r\n\r\ncontract Crowdfunding {\r\n    struct Campaign {\r\n        string name;\r\n        string description;\r\n        uint256 goal;\r\n        uint256 totalDonated;\r\n        bool active;\r\n    }\r\n\r\n    mapping(uint256 => Campaign) public campaigns;\r\n    uint256 public campaignCount;\r\n\r\n    event DonationReceived(uint256 campaignId, address donor, uint256 amount);\r\n\r\n    constructor() {\r\n        // Menambahkan kampanye awal\r\n        addCampaign(\"Pembangunan Sekolah Wilayah XXX\", \"Membantu membangun sekolah di wilayah yang membutuhkan pendidikan.\", 100 ether);\r\n        addCampaign(\"Pembangunan Tempat Ibadah\", \"Membangun tempat ibadah untuk komunitas di daerah yang kurang.\", 50 ether);\r\n        addCampaign(\"Donasi Perawatan Teknologi ABC\", \"Mendukung perawatan dan pembaruan teknologi ABC untuk meningkatkan kualitas hidup.\", 30 ether);\r\n    }\r\n\r\n    // Fungsi untuk menambah kampanye\r\n    function addCampaign(string memory _name, string memory _description, uint256 _goal) public {\r\n        campaigns[campaignCount] = Campaign({\r\n            name: _name,\r\n            description: _description,\r\n            goal: _goal,\r\n            totalDonated: 0,\r\n            active: true\r\n        });\r\n        campaignCount++;\r\n    }\r\n\r\n    // Fungsi untuk mendonasi\r\n    function donate(uint256 _campaignId) public payable {\r\n        require(_campaignId < campaignCount, \"Campaign does not exist.\");\r\n        require(msg.value > 0, \"Donation amount must be greater than zero.\");\r\n        require(campaigns[_campaignId].active, \"Campaign is not active.\");\r\n\r\n        campaigns[_campaignId].totalDonated += msg.value;\r\n        emit DonationReceived(_campaignId, msg.sender, msg.value);\r\n    }\r\n\r\n    // Fungsi untuk mendapatkan informasi kampanye\r\n    function getCampaign(uint256 _campaignId) public view returns (string memory, string memory, uint256, uint256, bool) {\r\n        require(_campaignId < campaignCount, \"Campaign does not exist.\");\r\n        Campaign memory campaign = campaigns[_campaignId];\r\n        return (campaign.name, campaign.description, campaign.goal, campaign.totalDonated, campaign.active);\r\n    }\r\n}\r\n",
  "sourcePath": "C:\\Users\\ASUS\\cf1\\contracts\\Crowdfunding.sol",
  "compiler": {
    "name": "solc",
    "version": "0.8.0+commit.c7dfd78e.Emscripten.clang"
  },
  "schemaVersion": "3.4.16",
  "updatedAt": "2024-12-17T06:13:35.637Z",
  "networkType": "ethereum",
  "devdoc": {
    "kind": "dev",
    "methods": {},
    "version": 1
  },
  "userdoc": {
    "kind": "user",
    "methods": {},
    "version": 1
  }
}